:100000000C942A000C9434000C9434000C943400AA
:100010000C9434000C9434000C9434000C94340090
:100020000C9434000C9434000C9434000C94340080
:100030000C9434000C9434000C9434000C94340070
:100040000C9434000C9434000C9434000C94340060
:100050000C94340011241FBECFE5D8E0DEBFCDBF25
:100060000E945D010C946D010C9400004423B9F1D1
:10007000413009F06BC0813089F028F08230C9F03E
:10008000833011F108952AB381E090E002C0880F17
:10009000991F6A95E2F7822B8ABB089527B381E006
:1000A00090E002C0880F991F6A95E2F7822B87BB08
:1000B000089524B381E090E002C0880F991F6A95EB
:1000C000E2F7822B84BB089522B381E090E002C066
:1000D000880F991F6A95E2F7822B82BB08958130C1
:1000E00091F028F08230D9F0833029F108952AB3B5
:1000F00081E090E002C0880F991F6A95E2F7809531
:1001000082238ABB089527B381E090E002C0880F64
:10011000991F6A95E2F78095822387BB089524B3DF
:1001200081E090E002C0880F991F6A95E2F7809500
:10013000822384BB089522B381E090E002C0880F3F
:10014000991F6A95E2F78095822382BB0895442324
:10015000B9F1413009F06BC0813089F028F082306C
:10016000C9F0833011F108952BB381E090E002C013
:10017000880F991F6A95E2F7822B8BBB089528B3ED
:1001800081E090E002C0880F991F6A95E2F7822B08
:1001900088BB089525B381E090E002C0880F991FC5
:1001A0006A95E2F7822B85BB089523B381E090E046
:1001B00002C0880F991F6A95E2F7822B83BB0895CE
:1001C000813091F028F08230D9F0833029F1089500
:1001D0002BB381E090E002C0880F991F6A95E2F787
:1001E000809582238BBB089528B381E090E002C004
:1001F000880F991F6A95E2F78095822388BB08953E
:1002000025B381E090E002C0880F991F6A95E2F75C
:100210008095822385BB089523B381E090E002C0DE
:10022000880F991F6A95E2F78095822383BB089512
:10023000813089F028F08230C9F0833011F10895BF
:100240002BB381E090E002C0880F991F6A95E2F716
:1002500082278BBB089528B381E090E002C0880F0D
:10026000991F6A95E2F7822788BB089525B381E03C
:1002700090E002C0880F991F6A95E2F7822785BB3C
:10028000089523B381E090E002C0880F991F6A951A
:10029000E2F7822783BB089541E062E082E00E949A
:1002A0003600089541E062E082E00E94A7000895D0
:1002B00062E082E00E94180108950E944C010E94B1
:1002C00052010E9458012FEF83ED90E321508040AE
:0E02D0009040E1F700C00000F4CFF894FFCF9B
:00000001FF
