S00B00004C45442E7372656344
S11300000C942A000C9434000C9434000C943400A6
S11300100C9434000C9434000C9434000C9434008C
S11300200C9434000C9434000C9434000C9434007C
S11300300C9434000C9434000C9434000C9434006C
S11300400C9434000C9434000C9434000C9434005C
S11300500C94340011241FBECFE5D8E0DEBFCDBF21
S11300600E9451010C945E010C94000040E060E099
S113007081E00C94490086B38170B099FECF2FEFD4
S113008039EF90E0215030409040E1F700C000008B
S11300900895442379F1413009F05FC0813079F04B
S11300A028F08230A9F08330E1F008952AB381E08A
S11300B090E001C0880F6A95EAF7822B2CC027B321
S11300C081E090E001C0880F6A95EAF7822B2EC088
S11300D024B381E090E001C0880F6A95EAF7822B8F
S11300E030C022B381E090E001C0880F6A95EAF73E
S11300F0822B32C0813089F028F08230C9F08330FD
S113010011F108952AB381E090E001C0880F6A9547
S1130110EAF7809582238ABB089527B381E090E0B3
S113012001C0880F6A95EAF78095822387BB0895FA
S113013024B381E090E001C0880F6A95EAF78095C6
S1130140822384BB089522B381E090E001C0880F2C
S11301506A95EAF78095822382BB0895442379F156
S1130160413009F05FC0813079F028F08230A9F085
S11301708330E1F008952BB381E090E001C0880F53
S11301806A95EAF7822B2CC028B381E090E001C085
S1130190880F6A95EAF7822B2EC025B381E090E0A0
S11301A001C0880F6A95EAF7822B30C023B381E03F
S11301B090E001C0880F6A95EAF7822B32C0813043
S11301C089F028F08230C9F0833011F108952BB3FF
S11301D081E090E001C0880F6A95EAF78095822358
S11301E08BBB089528B381E090E001C0880F6A9525
S11301F0EAF78095822388BB089525B381E090E0D7
S113020001C0880F6A95EAF78095822385BB08951B
S113021023B381E090E001C0880F6A95EAF78095E6
S1130220822383BB0895813081F028F08230B9F0B5
S11302308330F9F008952BB381E090E001C0880F7A
S11302406A95EAF782278BBB089528B381E090E092
S113025001C0880F6A95EAF7822788BB089525B301
S113026081E090E001C0880F6A95EAF7822785BB98
S1130270089523B381E090E001C0880F6A95EAF7FE
S1130280822783BB089541E062E082E00C94490038
S113029041E062E082E00C94AE0062E082E00C9403
S11302A013010E9436000E9443010E9448010E94EB
S11302B03B008130E1F70E944D01F9CFF894FFCF64
S9030000FC
